:1000000000400020AD370000E9370000E93700006C
:10001000E9370000E9370000E93700000000000080
:10002000000000000000000000000000E9370000B0
:10003000E937000000000000E9370000E937000060
:10004000750E000059370000673700007537000053
:1000500085370000E93700009107000045070000E0
:10006000AD0B0000E9370000E93700000D26000065
:100070001B260000E9370000812F00000521000049
:1000800035210000E9370000E93700008D0300004A
:100090001D2200003D220000E9370000E937000082
:1000A0004D2100006D210000B5210000D521000088
:1000B000A1320000C9320000E9370000E937000032
:1000C000E9370000E9370000E9370000E9370000B0
:1000D000E9370000E9370000E9370000E9370000A0
:1000E00029260000A10600001D2100003D06000099
:1000F000E9370000E9370000E937000000000000A0
:1001000000000000000000000000000000000000EF
:1001100000000000000000000000000000000000DF
:10012000E9370000E9370000E9370000E93700004F
:10013000E9370000E9370000E9370000E93700003F
:10018000FFFFFFFFFFFFFFFFFFFFFFFFFFFFFFFF7F
:1001900003329CA77F000000FFFFFFFFFFFFFFFF70
:1001A00010B5054C237833B9044B13B10448AFF3B1
:1001B00000800123237010BD001004200000000007
:1001C000DCF9000008B5034B1BB103490348AFF34A
:1001D000008008BD0000000004100420DCF90000CD
:1001E000154B002B08BF134B9D46A3F5803A002109
:1001F0008B460F461348144A121A08F0A5FF0F4BFE
:10020000002B00D098470E4B002B00D098470020C1
:10021000002104000D000D48002802D00C480CF00D
:100220003BFC08F01FFC2000290005F05FFF08F0F0
:1002300009FC00BF00000800004000200000000092
:100240000000000000100420B819042099CA000022
:100250007DDC000080B483B000AF0346FB7197F9EA
:100260000730002B0BDBFB7903F01F02064997F9DF
:1002700007305B09012000FA02F241F8232000BF99
:100280000C37BD4680BC704700E100E080B584B00B
:1002900000AF0023FB60EFF310837B607B68FB60A3
:1002A00072B61B4B1B7883F00103DBB2002B26D008
:1002B000174B01221A70174B5B68164A43F0010373
:1002C0005360154A134B9A601320FFF7C3FF6FF07A
:1002D0007843BB600F4ABB6813620E4ABB68D362A7
:1002E0000C4ABB6853630B4ABB68D363094ABB68BB
:1002F0009364084ABB68D364064ABB681365FB680D
:100300003B603B6883F3108800BF1037BD4680BD5B
:1003100000180420000001400014042080B489B0BB
:1003200000AF0346B9607A60FB730023FB77164A7F
:10033000FB7BDB0013440433BB61BB69BA681A6002
:10034000BB697A685A60FB7B012202FA03F37B6186
:10035000BB68002B08D00C4BD3F8DC200A497B6922
:100360001343C1F8DC3008E0074BD3F8DC207B698D
:10037000DB4305491340C1F8DC30FB7F18462437C6
:10038000BD4680BC704700BF0018042080B58AB00D
:1003900000AF2C4BDB6CFB612A4B9B6CBB61294B88
:1003A0001B6D7B61284BD3F8DC20B9697B690B435B
:1003B00013407B627B6A002B37D020233B617B6A32
:1003C000B3FA83F33B622CE03A693B6AD31A013BF0
:1003D000FB600122FB6802FA03F3BB601A4AFB6868
:1003E000DB00134404337B607B681B68002B0FD059
:1003F000BA69BB681340002B01D0012300E002233F
:100400003B607B681B687A685068002239689847AF
:10041000BB68DB437A6A13407B627B6AB3FA83F37F
:100420003B623A6A3B699A42CED3064ABB699364FF
:10043000044A7B691365034AFB69D36400BF28370C
:10044000BD4680BD000001400018042080B483B088
:1004500000AF0346FB7197F90730002B0BDBFB79EC
:1004600003F01F02064997F907305B09012000FAE3
:1004700002F241F8232000BF0C37BD4680BC704714
:1004800000E100E080B500AF284B4CF61432DA6092
:10049000264B02221A61264B00221A60234B4CF68F
:1004A0001432DA60214B1B69204A43F002031361C6
:1004B00000BF1E4B1B6903F40073002BF9D01D4BCA
:1004C0001B681C4A23F0030313601A4B00221A60B6
:1004D000184B194A5A60174B46F61A02DA60154B48
:1004E0001F225A61154B00221A60144B00229A6099
:1004F000124B00225A640D4B4CF61432DA600B4B4F
:100500001B690A4A23F0040313610620FFF79EFFCC
:100510000720FFF79BFF2920FFF798FF2B20FFF70D
:1005200095FF03F065F90023184680BD00C1044023
:10053000E018042000C304400404100000C004407C
:1005400080B584B000AF03463960FB7103F050F909
:10055000134B1B68BB60FB79002B07D0012B0CD120
:10056000104B5B6803F03F03FB6008E00D4B5B68DA
:100570001B0A03F03F03FB6001E004230BE0FB6870
:10058000002B01D10123FB60BA68FB68B2FBF3F2D8
:100590003B681A60002318461037BD4680BD00BF77
:1005A0001419042000C3044080B588B000AF03468E
:1005B0000A46FB711346BB8000237B61FB79012B4C
:1005C00004D0022B0ED0002B05D012E03F23FB619C
:1005D000BB88BB610FE04FF47C53FB61BB881B02FF
:1005E000BB6108E04FF47F03FB61BB881B04BB6168
:1005F00001E004231CE0EFF31083BB60BB687B6168
:1006000072B60D4B5B683B61FB69DB433A69134093
:100610003B613A69BB6913433B61074A3B695360DD
:100620007B69FB60FB6883F3108803F0E1F800232B
:1006300018462037BD4680BD00C3044080B582B057
:1006400000AF144B9B6903F006037B60124B1B68E1
:10065000002B18D07B6803F00403002B07D00E4B4F
:100660001B680E4A10680022082198470BE07B683F
:1006700003F00203002B06D0074B1B68074A1068E3
:10068000002207219847034A7B68936100BF08371F
:10069000BD4680BD00C30440E0180420E4180420D7
:1006A00080B582B000AF244B9B6903F4CC433B6020
:1006B00000237B60214B1B68002B33D03B68002B51
:1006C00030D03B6803F48043002B04D07B6843F0B8
:1006D00004037B601CE03B6803F40053002B04D050
:1006E0007B6843F003037B6012E03B6803F4007314
:1006F000002B04D07B6843F005037B6008E03B6877
:1007000003F48063002B03D07B6843F006037B6017
:100710007B68002B06D0094B1B68094A1068002231
:10072000796898473B68002B02D0034A3B68936185
:1007300000BF0837BD4680BD00C30440E018042058
:10074000E418042080B582B000AF0E4B5B687B607C
:100750007B6803F00103002B10D00B4B1B68002BB0
:1007600006D0094B1B68094A10680022796898472F
:10077000044B5B68034A43F00103536000BF083732
:10078000BD4680BD00C00440E0180420E4180420E9
:1007900080B582B000AF154B5B687B60144B1B6863
:1007A000002B17D07B6803F00403002B06D0104BFE
:1007B0001B68104A10680022002198477B6803F0EC
:1007C0000203002B06D00A4B1B680A4A106800225D
:1007D00001219847054B5A687B6803F006030349DB
:1007E00013434B6000BF0837BD4680BD00C00440C6
:1007F000E0180420E418042080B48FB000AF034652
:100800003960FB711346BB7100237B6300233B639C
:100810000023FB623B68002B05D17B6B43F0020396
:100820007B63404B3B60FB79032B1CD801A252F841
:1008300023F000BF490800004508000053080000ED
:100840005D080000002367E03B6B43F006033B6359
:100850000BE07B6B43F004037B6306E07B6B43F0B0
:1008600006037B6301E0062356E0EFF31083BB61D0
:10087000BB69FB6272B62C4B44F65902DA602A4B14
:100880009B6823F00302FB79274913438B60274BB6
:100890001A697B6B1A433B6BDB43244913400B61A2
:1008A000EFF31183FB61FB69BB62214B1B89FB8466
:1008B000BB795B013B623B6A83F311880DE0BFF3B8
:1008C0004F8F30BFFB6A3B613B6983F31088EFF3C6
:1008D00010837B617B69FB6272B63B681B68002BEF
:1008E000EDD03B681B685A1E3B681A60BB6ABB6050
:1008F000BB6883F311880E4AFB8C13810B4B1B6979
:100900000A4A23F002031361BFF34F8FFB6AFB60B7
:10091000FB6883F31088002318463C37BD4680BC33
:10092000704700BFE818042000C0044000ED00E05C
:10093000002C004080B487B000AF786000237B615A
:100940007B68002B14D1104B7B60EFF31083FB60AE
:10095000FB687B6172B60D4B1B690C4A23F00203E6
:100960001361BFF34F8F7B693B613B6983F3108851
:100970007B681B685A1C7B681A60002318461C376A
:10098000BD4680BC704700BFE818042000ED00E0C1
:1009900080B489B000AFF860B9601346FB71FB68A2
:1009A000BB6100BFBB691B681B899BB203F080035E
:1009B000002BF7D100BFBB691B689B8D9BB203F472
:1009C0008053002BF7D10023FB77724B00221A8053
:1009D000714B00221A80714B00221A80704B00224A
:1009E0001A80704B00221A8020E0BB6803F00103DC
:1009F000002B15D0FB7F6C4A52F833307B61FB7FB4
:100A0000694ADB0013449B887B827B691A887B8A56
:100A1000012101FA03F39BB213439AB27B691A8056
:100A2000BB685B08BB60FB7F0133FB77BB68002BB7
:100A3000DBD1FB79002B3DD0BB691B681B8899B2C9
:100A4000544B1A88BB691B680A4392B21A80BB696F
:100A50001B681B8D99B2504B1A88BB691B680A43EF
:100A600092B21A85BB691B68B3F8503099B24B4BF0
:100A70001A88BB691B680A4392B2A3F85020BB696D
:100A80001B68B3F8543099B2454B1A88BB691B6890
:100A90000A4392B2A3F85420BB691B68B3F84C30E8
:100AA00099B2404B1A88BB691B680A4392B2A3F8FB
:100AB0004C2055E0BB691B681B889BB21AB2354BB2
:100AC0001B881BB2DB431BB213401AB2BB691B6805
:100AD00092B21A80BB691B681B8D9BB21AB22E4B57
:100AE0001B881BB2DB431BB213401AB2BB691B68E5
:100AF00092B21A85BB691B68B3F850309BB21AB228
:100B0000264B1B881BB2DB431BB213401AB2BB69D6
:100B10001B6892B2A3F85020BB691B68B3F854302D
:100B20009BB21AB21E4B1B881BB2DB431BB2134095
:100B30001AB2BB691B6892B2A3F85420BB691B6848
:100B4000B3F84C309BB21AB2164B1B881BB2DB4376
:100B50001BB213401AB2BB691B6892B2A3F84C20B7
:100B600000BFBB691B689B889BB203F08003802B8E
:100B7000F7D100BFBB691B689B8D9BB203F4804318
:100B8000B3F5804FF6D1002318462437BD4680BC0C
:100B9000704700BFEC180420EE180420F018042061
:100BA000F2180420F41804201800042080B586B040
:100BB00000AF00237B6100233B619B4B9B68FB6084
:100BC000FB681B681B889BB21A464FF60403134050
:100BD0003B61FB681B689B889BB203F07E037B81B3
:100BE0007B89002B56D03B69002B53D03B6903F027
:100BF0001003002B08D07B8903F00403002B03D0E3
:100C00007B6943F002037B613B6903F00403002B23
:100C100008D07B8903F00203002B03D07B6943F0EB
:100C200001037B613B6903F48053002B08D07B896F
:100C300003F00803002B03D07B6943F004037B61BE
:100C40003B6903F40043002B08D07B8903F0400389
:100C5000002B03D07B6943F020037B613B6903F4E5
:100C60008043002B08D07B8903F02003002B03D0A6
:100C70007B6943F010037B613B6903F40053002B55
:100C800008D07B8903F01003002B03D07B6943F06D
:100C900008037B61FB681B681B8D9BB203F01F037D
:100CA0003B61FB681B689B8D9BB203F00F033B818C
:100CB0003B89002B3AD03B69002B37D03B6903F0CE
:100CC0000803002B08D03B8903F00803002B03D056
:100CD0007B6943F400737B613B6903F00403002BE1
:100CE00008D03B8903F00403002B03D07B6943F455
:100CF00080737B613B6903F00203002B08D03B89C2
:100D000003F00203002B03D07B6943F080037B6177
:100D10003B6903F00103002B08D03B8903F001037A
:100D2000002B03D07B6943F040037B61FB681B68A9
:100D3000B3F850309BB21A4641F6FE7313403B6144
:100D4000FB681B68B3F848309AB240F21D33134079
:100D5000FB80FB88002B10D03B69002B0DD03B693A
:100D600003F40073002B08D0FB8803F40073002BFE
:100D700003D07B6943F400637B61FB681B68B3F8B5
:100D800050309BB21A464FF21C4313403B61FB8824
:100D9000002B3AD03B69002B37D03B6903F48043EA
:100DA000002B08D0FB8803F01003002B03D07B69D5
:100DB00043F480237B613B6903F40053002B08D08C
:100DC000FB8803F00803002B03D07B6943F4003356
:100DD0007B613B6903F48053002B08D0FB8803F050
:100DE0000403002B03D07B6943F480337B613B69B0
:100DF00003F48063002B08D0FB8803F00103002B71
:100E000003D07B6943F400437B61FB685B68002B84
:100E10000CD07B69002B09D0FB685B68FA6890688E
:100E200000227969984701E000000420FB681B68F4
:100E30009B8899B2FB681B687A890A4392B29A80B0
:100E4000FB681B689B8D99B2FB681B683A890A4353
:100E500092B29A85FB681B68B3F8483099B2FB6878
:100E60001B68FA880A4392B2A3F8482000BF1837DB
:100E7000BD4680BD80B586B000AF00237B610023F6
:100E80003B61A24B5B69FB60FB681B681B889BB2E4
:100E90001A464FF6040313403B61FB681B689B88AE
:100EA0009BB203F07E037B817B89002B56D03B698C
:100EB000002B53D03B6903F01003002B08D07B8933
:100EC00003F00403002B03D07B6943F002037B6132
:100ED0003B6903F00403002B08D07B8903F0020375
:100EE000002B03D07B6943F001037B613B6903F472
:100EF0008053002B08D07B8903F00803002B03D01C
:100F00007B6943F004037B613B6903F40043002BDE
:100F100008D07B8903F04003002B03D07B6943F0AA
:100F200020037B613B6903F48043002B08D07B895D
:100F300003F02003002B03D07B6943F010037B6197
:100F40003B6903F40053002B08D07B8903F01003A6
:100F5000002B03D07B6943F008037B61FB681B68AF
:100F60001B8D9BB203F01F033B61FB681B689B8DCD
:100F70009BB203F01F033B813B89002B48D03B69A8
:100F8000002B45D03B6903F01003002B08D03B89B0
:100F900003F01003002B03D07B6943F480637B6173
:100FA0003B6903F00803002B08D03B8903F00803DA
:100FB000002B03D07B6943F400737B613B6903F032
:100FC0000403002B08D03B8903F00403002B03D05B
:100FD0007B6943F480737B613B6903F00203002B60
:100FE00008D03B8903F00203002B03D07B6943F058
:100FF00080037B613B6903F00103002B08D03B8930
:1010000003F00103002B03D07B6943F040037B61B5
:10101000FB681B68B3F850309BB21A4641F6FE736A
:1010200013403B61FB681B68B3F848309AB240F24A
:101030001D331340FB80FB88002B10D03B69002B35
:101040000DD03B6903F40073002B08D0FB8803F438
:101050000073002B03D07B6943F400637B61FB6862
:101060001B68B3F84C309BB21A464FF21C43134036
:101070003B61FB88002B3AD03B69002B37D03B69A2
:1010800003F48043002B08D0FB8803F01003002BEF
:1010900003D07B6943F480237B613B6903F40053F5
:1010A000002B08D0FB8803F00803002B03D07B69DA
:1010B00043F400337B613B6903F48053002B08D079
:1010C000FB8803F00403002B03D07B6943F48033D7
:1010D0007B613B6903F48063002B08D0FB8803F03D
:1010E0000103002B03D07B6943F400437B61FB6861
:1010F0005B68002B0CD07B69002B09D0FB685B6818
:10110000FA68906800227969984701E0000004209D
:10111000FB681B689B8899B2FB681B687A890A4345
:1011200092B29A80FB681B689B8D99B2FB681B6822
:101130003A890A4392B29A85FB681B68B3F8483033
:1011400099B2FB681B68FA880A4392B2A3F8482058
:1011500000BF1837BD4680BD80B483B000AF0346E2
:10116000FB7197F90730002B0BDBFB7903F01F02B3
:10117000064997F907305B09012000FA02F241F8AD
:10118000232000BF0C37BD4680BC704700E100E063
:1011900080B483B000AF0346FB7197F90730002B92
:1011A00010DBFB7903F01F02094997F907305B094F
:1011B000012000FA02F2203341F82320BFF34F8FC1
:1011C000BFF36F8F00BF0C37BD4680BC704700BFB8
:1011D00000E100E080B586B000AFF860B9607A60E9
:1011E0003B60BB687B617A680021B86807F0ACFFA0
:1011F000FA6813469B0013449B002D4A1A447B69EE
:101200005A602B49FA6813469B0013449B000B4419
:101210001033BA681A602649FA6813469B001344D3
:101220009B000B4408331A687B691A607B690022B3
:101230009A62FB689B001F4A13443B617B691B68F1
:101240003A6912881A827B691B683A6952889A81C6
:101250003B687A691A607B691B681B8A9AB27B6952
:101260001B6842F0010292B21A82FFF70FF87B6905
:101270005B685B88DBB27A690F491846FFF74EF866
:101280000346002B01D00E230EE07B695B68DB88F0
:10129000DBB27A6909491846FFF740F80346002B8C
:1012A00001D00E2300E0002318461837BD4680BD4C
:1012B000A8000420B8F300009320000021200000C3
:1012C00080B483B000AF78600B46FB70FB78002BD6
:1012D0000AD07B681B681B8A9AB27B681B6842F441
:1012E000006292B21A8209E07B681B681B8A9AB27C
:1012F0007B681B6822F4006292B21A8200231846AF
:101300000C37BD4680BC704780B487B000AF7860B2
:101310000B46FB7000237B61EFF310833B613B695D
:101320007B6172B6FB78002B0AD07B681B681B8A36
:101330009AB27B681B6842F0020292B21A8219E0EC
:101340007B681B6800221A837B681B681B8A9AB221
:101350007B681B6822F0020292B21A827B681B68CB
:101360001B8A9BB27A68126843F4207343F001032E
:101370009BB213827B69FB60FB6883F310880023B8
:1013800018461C37BD4680BC704780B584B000AF9E
:101390007860396007F1080319460020FFF7D0F89C
:1013A0000346002B01D003231BE03B685A00BB68B7
:1013B0009A4201D90C2314E0BA683B68B2FBF3F3FC
:1013C0005B089BB2013BFB81FA89FB8903F03F0379
:1013D0009A4201D0072304E07B681B68FA899A814E
:1013E000002318461037BD4680BD80B586B000AFDB
:1013F000786039607B681B689B899BB27B6107F1D1
:101400000C0319460020FFF79BF80346FB74FB7C96
:10141000002B04D03B6800221A60012308E0FA6820
:101420007B690133B2FBF3F35A083B681A6000236F
:1014300018461837BD4680BD80B483B000AF7860D1
:101440000B46FB70FB78002B0AD07B681B681B8A5D
:101450009AB27B681B6842F0080292B21A8209E0D5
:101460007B681B681B8A9AB27B681B6822F00802A3
:1014700092B21A82002318460C37BD4680BC7047D2
:1014800080B483B000AF78600B46FB707B68FA785D
:1014900083F82620002318460C37BD4680BC7047D1
:1014A00080B483B000AF78600B46FB70FB78002BF4
:1014B0000AD07B681B681B8A9AB27B681B6842F063
:1014C000040292B21A8209E07B681B681B8A9AB2F6
:1014D0007B681B6822F0040292B21A82002318462D
:1014E0000C37BD4680BC704780B584B000AF7860D3
:1014F00039607B68012283F825203968786800F01C
:1015000014F80346FB737B68002283F82520FB7BDD
:10151000002B05D17B681B69002B01D00F23FB73C7
:10152000FB7B18461037BD4680BD80B584B000AF48
:101530007860396000237B733B681A687B685A6166
:101540003B685A687B689A613B681A897B689A8312
:101550003B685A897B68DA833B681A7B7B6883F82F
:1015600020203B685A7B7B6883F821203B689A7B6C
:101570007B6883F823203B68DA7B7B6883F8242030
:101580007B68002283F822207B6800221A617B6836
:101590001B681B8A9AB27B681B6822F4415292B284
:1015A0001A827B6893F82330002B19D07B68DB8B81
:1015B000002B0AD07B681B689B8A9AB27B681B68E9
:1015C00022F4005292B29A8235E07B681B689B8AB3
:1015D0009AB27B681B6842F4005292B29A822AE067
:1015E0004FF40053FB817B689B8B002B03D0FB895E
:1015F00043F40073FB817B68DB8B002B03D0FB89FA
:1016000043F48063FB817B681B689B8A99B27B688B
:101610001B68FA890A4392B29A827B68DB8B002BA3
:1016200009D17B681B681B8A9AB27B681B6842F0F1
:10163000400292B21A827B681B681B889BB27B8136
:101640007B681B687A8992B21A807B681B681B8A48
:101650009AB27B681B6842F0020292B21A827B68DF
:1016600093F826207B681B6892B21A8639687868DE
:1016700000F018F87B6893F82530002B0DD07B68BC
:101680002833002219460020FFF7B6F803463B73C3
:101690003B7B002B01D00D2300E07B7B18461037ED
:1016A000BD4680BD80B588B000AF786039607B688A
:1016B00093F82330002B0CD07B6893F82430002B58
:1016C00007D03B685B89012B03D17B68002283F83C
:1016D00023207B681B681B8A9AB27B681B6842F4D4
:1016E000405292B21A827B681B681B8A9AB27B684E
:1016F0001B6822F4405292B21A827B681B689B8B53
:101700009AB27B681B6822F0070292B29A83002388
:10171000BB837B6893F82330002B00F0B980012352
:10172000BB833B681B897B837B8B002B55D07B68FD
:101730005B685B88FB827B685B681B885BB21846D2
:10174000FFF70AFDFB8A9A4A012101FA03F3C2F866
:101750001438FB8A964A012101FA03F39362FB8A4B
:10176000934A012101FA03F35362FB8A904A012153
:1017700001FA03F353637B8B03F00103002B02D0C8
:101780007B8B01337B833B681A687B8B023BD118D0
:10179000884B1A68FB8A1B0113440A461A607B684F
:1017A0001B6803F10801834B1A68FB8A1B01134471
:1017B0000A465A607B8B5B089BB2013B1B017D4A4A
:1017C0001168FA8A12010A4443F0454343F00103C9
:1017D0009360BB8B43F00203BB833B685B897B83D5
:1017E0007B8B002B54D07B685B68DB88BB827B687B
:1017F0005B689B885BB21846FFF7AEFCBB8A6C4AFD
:10180000012101FA03F3C2F81C38BB8A684A01219E
:1018100001FA03F39362BB8A654A012101FA03F3DB
:101820005362BB8A624A012101FA03F353637B8B43
:1018300003F00103002B02D07B8B01337B837B6899
:101840001B68191D5B4B1A68BB8A1B0113440A46AF
:101850001A603B685A687B8B023BD118554B1A685B
:10186000BB8A1B0113440A465A607B8B5B089BB200
:10187000013B1B014F4A1168BA8A12010A4443F026
:101880009A4343F001039360BB8B43F00403BB8393
:101890007B681B6800229A847B6893F82430002BB5
:1018A0002DD07B689B8B013B3B617B681B689B8CCD
:1018B0009AB27B681B6822F0F00292B29A847B682D
:1018C0001B689B8C9AB23B699BB29B009BB21343F3
:1018D0009AB27B681B6842F0010292B29A847B68DC
:1018E0001B681B8A9AB27B681B6842F4006292B242
:1018F0001A827B681B687A68D28B1A8328E07B681F
:10190000DB8B002B0AD17B681B681B8A9AB27B6831
:101910001B6842F4805292B21A820DE07B689B8B66
:10192000002B09D17B681B681B8A9AB27B681B68F5
:1019300042F4005292B21A827B689A8B7B68DB8BEE
:10194000934238BF1346FB837B681B68FA8B1A836C
:101950007B6893F8233083F00103DBB2002B2BD09C
:101960007B685B69002B55D00023FB8317E07B6805
:101970005B691A787B681B6892B21A817B685B6925
:101980007A6892F820201A447B685A617B689B8BA6
:10199000013B9AB27B689A83FB8B0133FB83FB8B01
:1019A000072B37D87B689B8B002BE0D132E000BF40
:1019B00000000140B4F300007B681B689B8B99B268
:1019C0007B681B68BA8B0A4392B29A837B6893F850
:1019D0002330002B1ED03B681B89002B1AD000231C
:1019E0003B8312E07B681B681B8C9BB27B817B89ED
:1019F0009BB203F00F039BB2C3F10803FB81FB8989
:101A0000002B06D13B8B01333B833B8B632BE9D906
:101A100000E000BF7B681B681B8A9BB203F0400399
:101A2000402B03D07B681B689B88BB817B685B680D
:101A300093F90C301846FFF78FFB00BF2037BD46E7
:101A400080BD00BF80B588B000AF786039600023EA
:101A5000FB617B681B681B8A9AB27B681B6842F437
:101A6000405292B21A827B681B681B8A9AB27B68CA
:101A70001B6822F4405292B21A827B681B689B8BCF
:101A80009AB27B681B6822F0070292B29A837B6845
:101A9000002283F822203B681A687B685A613B6801
:101AA0005A687B689A613B681A897B689A833B68AD
:101AB0005A897B68DA833B681A7B7B6883F820202D
:101AC0003B685A7B7B6883F821203B689A7B7B6864
:101AD00083F823203B68DA7B7B6883F824207B68CB
:101AE00000221A617B681B681B8A9AB27B681B689C
:101AF00022F4615292B21A827B689B8B002B09D12F
:101B00007B681B681B8A9AB27B681B6842F4005290
:101B100092B21A827B68DB8B002B1BD17B681B681F
:101B20001B8A9AB27B681B6842F4805292B21A8276
:101B30007B6893F8233083F00103DBB2002B09D0DC
:101B40007B681B681B8A9AB27B681B6842F0400264
:101B500092B21A827B68D98B7B689A8B7B681B68F0
:101B60008A4238BF0A4692B21A8300237B837B687D
:101B700093F82330002B00F0B7803B681B893B8330
:101B80003B8B002B55D07B685B685B88BB827B6896
:101B90005B681B885BB21846FFF7DEFABB8A9B4A7C
:101BA000012101FA03F3C2F81438BB8A974A0121D4
:101BB00001FA03F39362BB8A944A012101FA03F309
:101BC0005362BB8A914A012101FA03F353633B8BB1
:101BD00003F00103002B02D03B8B01333B833B68B6
:101BE0001A683B8B023BD118894B1A68BB8A1B01D0
:101BF00013440A461A607B681B6803F10801844B92
:101C00001A68BB8A1B0113440A465A603B8B5B0867
:101C10009BB2013B1B017E4A1168BA8A12010A4439
:101C200043F0454343F0010393607B8B43F0020391
:101C30007B833B685B893B833B8B002B54D07B6869
:101C40005B68DB887B827B685B689B885BB218463D
:101C5000FFF782FA7B8A6D4A012101FA03F3C2F889
:101C60001C387B8A694A012101FA03F393627B8A5B
:101C7000664A012101FA03F353627B8A634A012118
:101C800001FA03F353633B8B03F00103002B02D0F3
:101C90003B8B01333B837B681B68191D5C4B1A68C7
:101CA0007B8A1B0113440A461A603B685A683B8BC7
:101CB000023BD118564B1A687B8A1B0113440A4613
:101CC0005A603B8B5B089BB2013B1B01504A116879
:101CD0007A8A12010A4443F09A4343F00103936065
:101CE0007B8B43F004037B837B681B689B8A9AB2DF
:101CF0007B681B6822F4005292B29A827B6893F848
:101D0000233083F00103DBB2002B46D07B681B68D5
:101D10001B8A9AB27B681B6822F4006292B21A8214
:101D20000023FB827B689B8B002B03D0FB8A43F450
:101D30000073FB827B68DB8B002B03D0FB8A43F4B0
:101D40008063FB827B681B689B8A99B27B681B68F7
:101D5000FA8A0A4392B29A8217E07B685B691A7822
:101D60007B681B6892B21A817B685B697A6892F81B
:101D700020201A447B685A617B689B8B013B9AB296
:101D80007B689A83FB690133FB61FB69072B11D8E0
:101D90007B689B8B002BE0D10CE07B681B689B8BE6
:101DA0009AB27B8B13439AB27B681B6842F00102A4
:101DB00092B29A837B681B681B8A9BB203F0400334
:101DC000402B04D07B681B689B889BB2FB817B689F
:101DD0005B6893F90C301846FFF7BEF97B6893F8FF
:101DE0002530002B0DD07B682833002219460020B7
:101DF000FEF702FD03467B747B7C002B01D0092398
:101E000000E0002318462037BD4680BD0000014099
:101E1000B4F3000080B584B000AF786039607B68AF
:101E2000012283F8252039687868FFF70BFE034606
:101E3000FB737B68002283F82520FB7B002B05D1F8
:101E40007B681B69002B01D00F23FB73FB7B1846BB
:101E50001037BD4680BD80B586B000AF78600023E6
:101E6000FB747B681B681B883B827B681B683A8A13
:101E70001A807B681B681B8CFB813B8A03F09003F4
:101E80009BB2002B1AD03B8A03F010039BB2002BAD
:101E900005D07B681B6943F001027B681A613B8AAD
:101EA00003F080039BB2002B05D07B681B6943F0D5
:101EB00002027B681A610123FB7459E0FB8903F07D
:101EC0000F039BB2C3F10803FB82FB891B0A9BB281
:101ED00003F00F03BB8217E07B685B691A787B68AD
:101EE0001B6892B21A817B685B697A6892F820203D
:101EF0001A447B685A617B689B8B013B9AB27B6872
:101F00009A83FB8A013BFB82FB8A002B03D07B6810
:101F10009B8B002BE0D17B6893F8243083F0010386
:101F2000DBB2002B1DD17B689B8B002B20D118E0EE
:101F30007B681B689B889AB27B689B69D2B21A70D7
:101F40007B689B697A6892F821201A447B689A61C1
:101F50007B68DB8B013B9AB27B68DA83BB8A013BEF
:101F6000BB82BB8A002B03D07B68DB8B002BDFD1CD
:101F70007B68DB8B002B1DD17B689B8B002B19D1E1
:101F80007B681B681B8A9BB203F00203022B0FD1F4
:101F90003B8A03F00203002B07D17B681B681B8878
:101FA0009BB203F00203022B04D10123FB7401E076
:101FB0000123FB74FB7C002B2ED07B681B689B8A63
:101FC0009AB27B681B6822F4185292B29A827B689C
:101FD000012283F822207B685B6893F90C30184655
:101FE000FFF7D6F87B681B681B883B827B681B6801
:101FF0003A8A1A807B689B68002B08D07B689B68B4
:102000007A68D0687A6811690022984704E07B6892
:1020100028331846FEF78EFC00BF1837BD4680BD3A
:1020200080B586B000AFF860B9607A60FB687B610C
:10203000BB68012B02D0022B07D00DE07B691B6926
:1020400043F004027B691A610DE07B691B6943F070
:1020500010027B691A6106E07B691B6943F040024C
:102060007B691A6100BF7B699B68002B08D07B6984
:102070009B687A69D0687A6911690022984704E000
:102080007B6928331846FEF755FC00BF1837BD465C
:1020900080BD80B586B000AFF860B9607A607B68BB
:1020A0007B61BB68012B02D0022B07D00DE07B695E
:1020B0001B6943F008027B691A610DE07B691B69AB
:1020C00043F020027B691A6106E07B691B6943F0DB
:1020D00080027B691A6100BF7B699B68002B08D076
:1020E0007B699B687A69D0687A6911690022984790
:1020F00004E07B6928331846FEF71CFC00BF183744
:10210000BD4680BD80B500AF034B1B691846FFF785
:10211000A2FE00BF80BD00BFA800042080B500AFB4
:10212000034B5B6A1846FFF796FE00BF80BD00BFF9
:10213000A800042080B500AF034B9B6B1846FFF747
:102140008AFE00BF80BD00BFA800042080B483B019
:1021500000AF054B1B697B607B6800229A8300BF40
:102160000C37BD4680BC7047A800042080B483B003
:1021700000AF0F4B1B697B607B680022DA837B68B2
:102180001B689B8B9AB27B681B6822F0070292B295
:102190009A837B681B689B8A9AB27B681B6842F4AF
:1021A000005292B29A8200BF0C37BD4680BC704785
:1021B000A800042080B483B000AF054B5B6A7B604D
:1021C0007B6800229A8300BF0C37BD4680BC7047F5
:1021D000A800042080B483B000AF0F4B5B6A7B6023
:1021E0007B680022DA837B681B689B8B9AB27B68D2
:1021F0001B6822F0070292B29A837B681B689B8A55
:102200009AB27B681B6842F4005292B29A8200BF75
:102210000C37BD4680BC7047A800042080B483B052
:1022200000AF054B9B6B7B607B6800229A8300BFED
:102230000C37BD4680BC7047A800042080B483B032
:1022400000AF0F4B9B6B7B607B680022DA837B685F
:102250001B689B8B9AB27B681B6822F0070292B2C4
:102260009A837B681B689B8A9AB27B681B6842F4DE
:10227000005292B29A8200BF0C37BD4680BC7047B4
:10228000A800042080B483B000AF0346FB7197F927
:102290000730002B0BDBFB7903F01F02064997F98F
:1022A00007305B09012000FA02F241F8232000BF49
:1022B0000C37BD4680BC704700E100E080B483B0BD
:1022C00000AF0346FB7197F90730002B10DBFB7959
:1022D00003F01F02094997F907305B09012000FA52
:1022E00002F2203341F82320BFF34F8FBFF36F8FEB
:1022F00000BF0C37BD4680BC704700BF00E100E066
:1023000080B584B000AFB9607A601A460346FB73AB
:102310001346BB73FB7B2549BA6841F82320FB7B3E
:1023200023497A6841F82320BB7B002B06D0FB7B36
:10233000204AD3561846FFF7A5FF05E0FB7B1D4A50
:10234000D3561846FFF7BAFFFA7BFB7B1A4951F8C0
:1023500023301A4931F812201A81FA7BFB7B164987
:1023600051F82330164931F812201A80FA7BFB7B92
:10237000114951F82330134931F812209A82FA7B1F
:10238000FB7B0D4951F823300F4931F812201A8494
:10239000FA7BFB7B084951F823300C4931F81220B5
:1023A0009A84002318461037BD4680BDF8180420D3
:1023B00004190420C4F300000C010420E4000420EC
:1023C000EC000420F4000420FC000420040104209C
:1023D00080B584B000AF03463960FB71FB792E4AAB
:1023E00052F823303A6892881A80FB792A4A52F8C8
:1023F00023303A68D2889A82FB794021184600F04F
:102400009BF80346002B01D0062340E0FB79224ACB
:1024100052F823301B89FB81FB8903F4C043FB8105
:102420003B689B789AB2FB891343FB813B68DB785E
:102430009BB25B019AB2FB891343FB813B685B78DB
:10244000002B03D0FB8943F00803FB813B681B781A
:10245000002B03D0FB8943F00403FB813B681B7A0C
:10246000002B03D0FB8943F08003FB813B685B7A40
:10247000002B05D0FB896FEA43436FEA5343FB818E
:10248000FB79054A52F82330FA891A81002318464D
:102490001037BD4680BD00BF0C01042080B582B05E
:1024A00000AF03460A46FB711346BB71FB7940211E
:1024B000184600F041F80346002B01D006231FE028
:1024C000FB79114A52F823301B899AB2FB790E49E5
:1024D00051F8233022F0100292B21A81BB79002BFE
:1024E0000DD0FB79084A52F823301B899AB2FB7948
:1024F000054951F8233042F0100292B21A810023AC
:1025000018460837BD4680BD0C01042080B483B056
:1025100000AF03463960FB71FB79064A52F823305D
:102520009B889AB23B681A80002318460C37BD4638
:1025300080BC70470C01042080B485B000AF034616
:102540000A46FB711346BB800023FB810FE0FB7939
:102550000C4A52F823309B8B9AB2BB8813409BB233
:10256000002B01D1002307E0FB890133FB81FB89AC
:10257000B3F57A7FEBD3062318461437BD4680BCEB
:10258000704700BF0C01042080B584B000AF034643
:10259000FB71FB791A4A52F823309B8BFB81FB7944
:1025A000184A52F82330002B1FD0FB8903F0010397
:1025B000002B0AD0FB79134A52F82330FA791249DA
:1025C00051F82200002201219847FB8903F0020301
:1025D000002B0AD0FB790B4A52F82330FA790A49CA
:1025E00051F82200002202219847FB79044A52F850
:1025F000233003229A8100BF1037BD4680BD00BF43
:102600000C010420F81804200419042080B500AF40
:102610000020FFF7B9FF00BF80BD80B500AF0120EB
:10262000FFF7B2FF00BF80BD80B500AF0220FFF70B
:10263000ABFF00BF80BD000080B483B000AF034695
:10264000FB7197F90730002B0BDBFB7903F01F02BE
:10265000064997F907305B09012000FA02F241F8B8
:10266000232000BF0C37BD4680BC704700E100E06E
:1026700080B483B000AF0346FB7197F90730002B9D
:1026800010DBFB7903F01F02094997F907305B095A
:10269000012000FA02F2203341F82320BFF34F8FCC
:1026A000BFF36F8F00BF0C37BD4680BC704700BFC3
:1026B00000E100E080B483B000AF0346FB7197F9FE
:1026C0000730002B0CDBFB7903F01F02074997F959
:1026D00007305B09012000FA02F2603341F8232041
:1026E00000BF0C37BD4680BC704700BF00E100E072
:1026F00080B588B000AFF860B9607A60FB68BB61F4
:10270000BB695B6ADB6A1B697B610023FB61BB6899
:10271000012B02D0022B05D009E0FB6943F4807342
:10272000FB6109E0FB6943F48063FB6104E0FB6942
:1027300043F48053FB6100BF7B691B68002B13D0FF
:102740007B695B7B002B0FD0BB699A69FB691A43DD
:10275000BB699A617B6900221A73BB695B6A0022BC
:102760001946B86900F067FEBB699A69FB691A43AC
:10277000BB699A61BB695B6A00221946B86900F0BF
:102780005AFE00BF2037BD4680BD80B588B000AF7F
:10279000F860B9607A60FB68BB61BB691B6ADB6A81
:1027A0001B697B610023FB61BB68012B02D0022BFC
:1027B00005D009E0FB6943F40073FB6109E0FB69A4
:1027C00043F40063FB6104E0FB6943F40053FB61E5
:1027D00000BF7B691B68002B13D07B695B7B002BE0
:1027E0000FD0BB699A69FB691A43BB699A617B691F
:1027F00000221A73BB691B6A01221946B86900F0EE
:102800001AFEBB699A69FB691A43BB699A61BB6985
:102810001B6A01221946B86900F00DFE00BF20377F
:10282000BD4680BD80B586B000AFF8607A603B6081
:102830000B46FB720023FB823B6A00221A607B6816
:102840003B613A680021786806F07EFCFB681B015A
:102850006E4A1A443B695A606C4AFB681B01134478
:1028600008331A683B699A603B69FA7A1A707B6888
:1028700030337B60FDF70AFDFB7A012B3CD03B69CE
:102880007A681A623B691B6A002283F834203B692C
:102890001A6A3B691B6A9A623B691A6A3B691B6A3E
:1028A0001A633B691A6A3B691B6ADA623B691B6AF5
:1028B0000022DA633B691B6A554A9A633B691A6ACC
:1028C0003B691B6A14321A613B691A6A3B691B6ACD
:1028D0005A623B695B681B783A694E491846FDF7B6
:1028E0001DFD0346002B04D0386900F09BF80F2330
:1028F00087E07B6840337B60FB7A002B39D03B69F3
:102900007A685A623B695B6A002283F834203B692B
:102910005A6A3B695B6A9A623B695A6A3B695B6ABD
:102920001A633B695A6A3B695B6ADA623B695B6AB4
:102930000022DA633B695B6A374A9A633B695A6AE9
:102940003B695B6A14321A613B695A6A3B695B6A8C
:102950005A623B695B685B783A6930491846FDF713
:10296000DDFC0346002B04D0386900F05BF80F2330
:1029700047E0F968386900F007FE3B699B681B8CEB
:102980009BB203F00103002B14BF01230023DAB232
:102990003B6983F82D203B699B681B8C9BB29B1184
:1029A0009BB203F00303FB82FB8A1D4AD25C3B69A6
:1029B00083F82E203B6A3A691A60144AFB681B01AF
:1029C00013440C333A691A603B695B6893F904302D
:1029D0001846FFF76FFE3B695B6893F904301846B1
:1029E000FFF72AFE3B695B6893F902301846FFF750
:1029F00023FE3B695B6893F903301846FFF71CFE22
:102A0000002318461837BD4680BD00BF18010420BA
:102A1000F12A00008B270000592C0000F12600004D
:102A2000D8F3000080B582B000AF78607B689B6807
:102A300000229A807B685B6893F903301846FFF7A1
:102A400017FE7B685B6893F902301846FFF710FEAB
:102A50007B685B6893F904301846FFF709FE7B68D2
:102A60005B680022DA60002318460837BD4680BD47
:102A700080B584B000AFF860B9607A60FB70FB6825
:102A80001B6A9B6ABA681A60FB681B6A9B6A7A6851
:102A90005A60FB681B6A9B6A00229A60FB681B6A8B
:102AA0009B6A01221A73FB681B6A9B6AFA785A7345
:102AB000FB681B6A9A6AFB681B6A12699A62FB6868
:102AC0001B6A93F83430002B0DD1FB681B6A02227D
:102AD00083F83420FB681B6A9B6BFA68126AD26A1F
:102AE0001146F8689847002318461037BD4680BD48
:102AF00080B483B000AF786039603B685B7B002BAB
:102B000056D07B685B681B781946314A01238B409D
:102B1000C2F814387B685B681B7819462C4A01237D
:102B20008B4093627B685B681B781946284A0123B7
:102B30008B4053627B685B681B781946244A0123EB
:102B40008B4053633B681B681A463B685B681A44BA
:102B5000204B19687B685B681B781B010B44013AAA
:102B60001A607B689B6819461A4B1A687B685B6819
:102B70001B781B0113440A465A603B685B68013BA3
:102B80001B01144A11687A685268127812010A44CB
:102B900043F0404343F0010393607B689B689B884C
:102BA0009AB27B689B6842F0100292B29A8009E068
:102BB0007B689B689B889AB27B689B6842F00202A4
:102BC00092B29A8000BF0C37BD4680BC704700BFF0
:102BD00000000140B4F3000080B584B000AFF8609D
:102BE000B9607A60FB70FB685B6A9B6ABA681A60BE
:102BF000FB685B6A9B6A7A685A60FB685B6A9B6ADF
:102C000000229A60FB685B6A9B6A01221A73FB6868
:102C10005B6A9B6AFA785A73FB685B6A9A6AFB681C
:102C20005B6A12699A62FB685B6A93F83430002B26
:102C30000DD1FB685B6A022283F83420FB685B6A73
:102C40009B6BFA68526AD26A1146F868984700236B
:102C500018461037BD4680BD80B483B000AF7860A1
:102C600039603B685B7B002B56D07B685B685B7888
:102C70001946314A01238B40C2F81C387B685B68D7
:102C80005B7819462C4A01238B4093627B685B6812
:102C90005B781946284A01238B4053627B685B6846
:102CA0005B781946244A01238B4053637B689B68F9
:102CB0001946224B1A687B685B685B781B011344DA
:102CC0000A461A603B681B681A463B685B681A44F0
:102CD0001A4B19687B685B685B781B010B44013AEF
:102CE0005A603B685B68013B1B01144A11687A68B3
:102CF0005268527812010A4443F0406343F00103E2
:102D000093607B689B689B889AB27B689B6842F063
:102D1000200292B29A8009E07B689B689B889AB2F5
:102D20007B689B6842F0010292B29A8000BF0C3728
:102D3000BD4680BC704700BF00000140B4F30000F6
:102D400080B584B000AFF860B9607A60FB70FB6852
:102D50001B6A012283F83420FB681B6A9B6ABA68ED
:102D60001A60FB681B6A9B6A7A685A60FB681B6A78
:102D70009B6A00229A60FB681B6A9B6A01221A7395
:102D8000FB681B6A9B6AFA785A73FB681B6A9A6A2B
:102D9000FB681B6A12699A62FB681B6A9B6BFA6884
:102DA000126AD26A1146F8689847FB681B6ABA69CA
:102DB0001946F86800F046F8034618461037BD4635
:102DC00080BD80B584B000AFF860B9607A60FB70F8
:102DD000FB685B6A012283F83420FB685B6A9B6AAC
:102DE000BA681A60FB685B6A9B6A7A685A60FB681B
:102DF0005B6A9B6A00229A60FB685B6A9B6A01229D
:102E00001A73FB685B6A9B6AFA785A73FB685B6AA1
:102E10009A6AFB685B6A12699A62FB685B6A9B6BE1
:102E2000FA68526AD26A1146F8689847FB685B6A8A
:102E3000BA691946F86800F005F8034618461037D5
:102E4000BD4680BD80B586B000AFF860B9607A60DD
:102E5000BB683C33002219460020FDF7CDFC034639
:102E6000FB75FB7D002B01D001231FE0BB681B6BB2
:102E700000221A60BB681B6B1A69BB681A63BB68C7
:102E80001B6B1B68002B03D1BB68002283F8342026
:102E9000FB689B69002B08D0FB689A697B681A6005
:102EA000FB6800229A610D2300E0002318461837C2
:102EB000BD4680BD80B485B000AFF860B9607A606F
:102EC000FB68BA68DA60FB687A681A610023184602
:102ED0001437BD4680BC704780B485B000AF7860C1
:102EE000084611461A460346FB700B46BB70134654
:102EF0007B707B689B689B899BB223F00F03FB81EF
:102F00007A78BB781343DAB2FB781343DBB29AB218
:102F1000FB891343FB817B689B68FA899A810023B4
:102F200018461437BD4680BC704780B485B000AFEA
:102F3000F860084611461A4603467B810B467B72B1
:102F40001346FB80FB689B687A891A857B7A9BB263
:102F5000DB029AB2FB8813439BB2FA6892686FEA6D
:102F600043436FEA53439BB29384FB689B683A7E6A
:102F700092B29A85002318461437BD4680BC70472C
:102F800080B582B000AF054BDB687B60786800F0ED
:102F900007F800BF0837BD4680BD00BF18010420F8
:102FA00080B58EB002AF78607B689B681B899BB24E
:102FB00003F00E030C2B00F26C8101A252F823F0F7
:102FC000B530000093320000F52F0000933200006E
:102FD00011300000933200002130000093320000D5
:102FE00093320000933200009332000093320000CD
:102FF000FD2F0000786800F0E1F94DE17B689B68E7
:103000009B8E9BB2DBB21946786800F071F943E100
:103010007B6893F82E301946786800F069F93BE137
:103020000023FB627B689B689B8ABB83BB8B03F09E
:1030300010039BB2002B05D07B689B681B88802304
:10304000FB6209E0BB8B03F008039BB2002B03D0AB
:10305000FB6A43F01003FB62BB8B03F004039BB2DB
:10306000002B03D0FB6A43F02003FB62BB8B03F011
:1030700002039BB2002B03D0FB6A43F04003FB62C8
:10308000FB6A002B00F007817B681B7D83F0010346
:10309000DBB2002B00F0FF807B689A69FB6A1A4361
:1030A0007B689A617B685B6A04221946786800F045
:1030B000C2F9F0E00023BB627B689B68B3F8443040
:1030C0009BB203F00F037B837B689B68B3F84030AF
:1030D0009BB203F001033B837B8B002B00F0C98084
:1030E0003B8B002B00F0C58007F10C031946002034
:1030F000FDF726FA0346002B01D00023FB607B6816
:103100009B68B3F848309BB21B037B617B689B686C
:10311000B3F844309BB21B099BB21A467B69134338
:103120007B617B8B03F00103002B6FD07B689B6876
:103130009B8C9BB203F40043B3F5004F4DD10023A9
:1031400087F827304FF400633B610123FB837B69E1
:103150003F2B06D87B695B02DA083B69D31A3B62D6
:1031600028E07B697F2B09D87B691B02DA083B6961
:10317000D31A3B62012387F827301BE07B69FF2BC2
:1031800009D87B69DB01DA083B69D31A3B62022369
:1031900087F827300EE07B691B0AFB837B699A0165
:1031A000FB8BDB00B2FBF3F23B69D31A3B620323D8
:1031B00087F827303B6A9AB2F98B97F8273000934B
:1031C000134601227868FFF7B0FEFB68DA007B69DE
:1031D000B2FBF3F27B689A6206E0FB68DA007B6977
:1031E000B2FBF3F27B689A627B68DB68002B3DD010
:1031F0007B6893F82C30002B38D07B68DB687A68CA
:1032000010697A68926A032198472FE07B8B03F05C
:103210000203002B03D0BB6A43F40073BB627B8BB9
:1032200003F00403002B03D0BB6A43F48073BB623A
:103230007B8B03F00803002B03D0BB6A43F480634D
:10324000BB627B68DB68002B0DD07B685B6A93F800
:103250003430022B07D17B68DB687A681069BA6A60
:103260000521984702E07B68BA6ADA617B689B684F
:103270001B887B689B68B3F840309AB27B689B6878
:1032800022F0070292B2A3F840207B6800221A7550
:1032900002E000BF00E000BF00BF3037BD4680BD88
:1032A00080B582B000AF074BDB687B607B681B6A30
:1032B00001221946786800F0BEF800BF0837BD4605
:1032C00080BD00BF1801042080B582B000AF074B5D
:1032D000DB687B607B685B6A00221946786800F0D7
:1032E000AAF800BF0837BD4680BD00BF1801042002
:1032F00080B586B000AF78600B46FB707B685B6A78
:10330000DB6A7B617B691B683B613B69002B05D0F5
:103310007B691B7B002B01D0012300E00023FB73A2
:10332000FB7B03F00103FB73FB7B002B28D00EE03B
:103330007B689B681B8899B27B699B683A691344D8
:10334000CAB21A707B699B685A1C7B699A60FB78C9
:103350005A1EFA70002B05D07B699A687B695B68FE
:103360009A42E5D37B699A687B695B689A4221D16E
:103370007B685B6A00221946786800F05CF819E007
:103380007B68DB68002B06D07B68DB687A68106995
:103390000022022198477B691B68002B0AD17B69B8
:1033A0001B7B83F00103DBB2002B03D07B689B689F
:1033B0001B8800BF00BF1837BD4680BD80B584B0F4
:1033C00000AF78607B681B6ADB6A1B68002B2ED01D
:1033D0007B681B6ADB6A1B7B002B28D07B681B6A1F
:1033E000DB6A1B68FB607B681B6ADB6A9B68FA68A8
:1033F00013441B78DAB27B689B6892B21A807B68B0
:103400001B6ADB6A9A6801329A607B681B6ADB6A16
:103410009A687B681B6ADB6A5B689A4207D37B68A1
:103420001B6A01221946786800F005F800BF00BF4A
:103430001037BD4680BD80B586B000AFF860B9607A
:103440001346FB71BB68DB6A00221A73BB68DB6A38
:103450001A69BB68DA62FB79012B0AD1FB689B68A9
:103460009B889AB2FB689B6822F0120292B29A8003
:103470001BE0FB689B689B889AB2FB689B6822F004
:10348000200292B29A80FB6893F82D3083F00103FA
:10349000DBB2002B09D0FB689B689B889AB2FB6863
:1034A0009B6822F0010292B29A80FB68DB68002BD5
:1034B00038D0BB6893F83430022B33D1FB689B695A
:1034C0007B61FB6800229A61BB681B6B1B683B61D8
:1034D000BB681B6B00221A60BB681B6B1A69BB6858
:1034E0001A63BB681B6B1B68002B03D1BB680022EF
:1034F00083F834207B69002B07D0FB68DB68FA680F
:1035000010697A690421984706E0FB68DB68FA686D
:103510001069F9793A699847BB683C331846FDF75A
:1035200009FA20E0FB79012B0ED100BFFB689B68F4
:103530009B8A9BB203F04003402BF7D1FB689B684A
:103540001B8F9BB2002BF1D1BB681B6B1B691B68E7
:10355000002B03D1BB68002283F83420BB683C33C6
:103560001846FDF7E7F9BB68DB6A1B7B002B06D02A
:10357000BB689B6BBA68D26A1146F868984700BF6F
:103580001837BD4680BD000080B485B000AF7860BC
:1035900039603A681346DB009B1A5B00154A1344F6
:1035A000FB607B689B68FA6812889A817B689B68DD
:1035B000FA6852881A857B689B68FA6892889A84B0
:1035C0007B689B68FA68D2889A857B689B68FA68F2
:1035D00012891A847B689B68FA6852899A877B688B
:1035E0009B68FA6892899A8000BF1437BD4680BCF8
:1035F000704700BFC8F3000080B483B000AF03463B
:10360000FB7197F90730002B0BDBFB7903F01F02EE
:10361000064997F907305B09012000FA02F241F8E8
:10362000232000BF0C37BD4680BC704700E100E09E
:1036300080B582B000AF78603960084B1B68002B02
:1036400007D13A680021786805F07EFD034A7B685F
:103650001360002318460837BD4680BD10190420AA
:1036600080B58AB000AF03460A46FB711346BB71B2
:103670000023FB61FB799B000F2202FA03F3BB617D
:10368000FB79052B08D1BB795B0543F480137B6282
:10369000042387F823300EE0BB7943F00803DBB244
:1036A0001A46FB799B0002FA03F37B62FB79013334
:1036B000DBB287F82330EFF31083FB60FB68FB611C
:1036C00072B60F4B1B687B61BB69DB437A691340A1
:1036D0007B617A697B6A13437B61094A7B6913606A
:1036E000FB693B613B6983F3108897F923301846E7
:1036F000FFF782FF002318462837BD4680BD00BF74
:1037000080C0044080B582B000AF0346FB71FB79F6
:103710000F4A012101FA03F313610E4B1A68FB797A
:10372000DB0013441B68002B0ED00A4B1A68FB7990
:10373000DB0013441B68074A1168FA79D2000A4477
:103740005068F9790022984700BF0837BD4680BD10
:1037500080C004401019042080B500AF0020FFF79E
:10376000D1FF00BF80BD80B500AF0120FFF7CAFFC9
:1037700000BF80BD80B500AF0220FFF7C3FF00BFD0
:1037800080BD000080B500AF074B5B6803F02003ED
:10379000202B03D10520FFF7B5FF02E00320FFF740
:1037A000B1FF00BF80BD00BF80C0044080B582B0C3
:1037B00000AF0A4B7B600A4B3B6007E07A68131D41
:1037C0007B603B68191D396012681A603B68054AC6
:1037D0009342F3D300F076F8FCF702FDE8F900001D
:1037E00000000420E40F042080B400AFFEE70000D6
:1037F00080B487B000AF2E4B1B6803F00303032B8C
:1038000050D801A252F823F01938000021380000E6
:103810002938000091380000264B274A1A603CE006
:10382000244B254A1A6038E0214B1B6803F40063DF
:10383000002B02D0204B7B6101E01F4B7B611C4BB6
:10384000DB6803F01F033B61194BDB68DB0A03F005
:103850000F03FB60164BDB681B0C03F00103BB601E
:10386000134BDB681B0A03F001037B607A69BB68BA
:1038700002FA03F33A6902FB03F2FB68B2FBF3F2CC
:103880007B6822FA03F37B610A4A7B69136004E0D8
:103890000A4B1B68074A136000BF064B1B68084AA7
:1038A000136000E000BF1C37BD4680BC704700BFFE
:1038B00000C304401419042080BA8C011819042094
:1038C0001C19042080B584B000AF0121062000F04F
:1038D0001FF8EFF310837B607B68FB6072B60A4BC6
:1038E0000A4A9A60084B4FF4E0225A62BFF36F8F86
:1038F000BFF34F8FFB68BB60BB6883F3108800BFCA
:103900001037BD4680BD00BF00ED00E000000000A4
:1039100080B483B000AF78600B46FB700E4B44F66A
:103920005902DA60FB78002B07D00B4B5A697B6891
:103930005B08094913434B6107E0074B5A697B68F1
:103940005B08DB43044913404B61002318460C37E6
:10395000BD4680BC704700BF00C0044080B588B041
:1039600000AFF8600B467A60FB727B6800221A6039
:10397000FB689A68FB7A13441B78BB77FB7ADB0001
:103980005BB203F038035BB243F040035BB2DBB2DF
:103990003B7507F114030133BA7F01320021184649
:1039A00005F0D2FBFB681868BB7F9BB201339AB26B
:1039B00007F11403194603F03BF8B861BB69002B0B
:1039C00002D04FF0FF3317E00123FB770EE07B6856
:1039D0001B681B02FA7F07F120010A4412F80C2C25
:1039E0001A437B681A60FB7F0133FB77FA7FBB7F4A
:1039F00001339A42EBDBBB6918462037BD4680BDD8
:103A000080B588B000AFF8600B467A60FB72FB6847
:103A10009A68FB7A13441B78BB77FB7ADB00DBB236
:103A200003F03803DBB23B750123FB770FE0BA7F6D
:103A3000FB7FD31ADB007A68DA40FB7FD2B207F152
:103A400020010B4403F80C2CFB7F0133FB77FA7F3A
:103A5000BB7F01339A42EADBFB681868BB7F9BB2ED
:103A600001339AB207F11403194602F0E1FFB8617D
:103A7000BB69002B02D04FF0FF3300E0BB69184652
:103A80002037BD4680BD000080B584B000AF7860AF
:103A9000074B1B68FB607B681B6807F10C01042265
:103AA000184602F0C5FF034618461037BD4680BDD4
:103AB000ECF3000080B584B000AF78600B46FB707B
:103AC0000023BB6007F108031A4601217868FFF75D
:103AD00045FFF860FB68002B02D04FF0FF3321E078
:103AE000BB6823F46043BB60FB785B039AB2BB689E
:103AF0001343BB60BB681A4601217868FFF780FF5B
:103B0000F860FB68002B02D04FF0FF330AE07868C2
:103B100000F0EBF8F860FB68002B02D04FF0FF33A9
:103B200000E0002318461037BD4680BD80B584B044
:103B300000AF78600B46FB700023BB6007F1080301
:103B40001A4602217868FFF709FFF860FB68002B2E
:103B500002D04FF0FF3310E0BB6823F00703BB60D7
:103B6000FB7803F00702BB681343BB60BB681A46CF
:103B700002217868FFF744FF034618461037BD4618
:103B800080BD80B586B000AFF8600B467A60FB72EE
:103B9000FB7A1946F868FFF7C9FF78617B69002B4B
:103BA00002D04FF0FF3321E00121F868FFF782FFD8
:103BB00078617B69002B02D04FF0FF3316E0F86884
:103BC00000F093F878617B69002B02D04FF0FF334F
:103BD0000CE07A680321F868FFF7C0FE78617B6922
:103BE000002B02D04FF0FF3300E0002318461837B7
:103BF000BD4680BD80B584B000AF78600B46FB70D9
:103C00000023BB6007F108031A4602217868FFF71A
:103C1000A5FEF860FB68002B02D04FF0FF3311E0E7
:103C2000BB6823F4E063BB60FB781B0203F4E06233
:103C3000BB681343BB60BB681A4602217868FFF774
:103C4000DFFE034618461037BD4680BD80B584B000
:103C500000AF786039600023BB6007F108031A46A3
:103C600002217868FFF77AFEF860FB68002B02D02B
:103C70004FF0FF3309E0BB6803F4E063BB60BB684F
:103C80001B0ADAB23B681A70002318461037BD468B
:103C900080BD80B584B000AF78600B46FB70002318
:103CA000BB6007F108031A4602217868FFF756FE49
:103CB000F860FB68002B02D04FF0FF3311E0BB68C7
:103CC00023F48053BB60FB781B0303F48052BB6872
:103CD0001343BB60BB681A4602217868FFF790FE69
:103CE000034618461037BD4680BD80B586B000AF8C
:103CF00078604FF6FF737B6117E007F10C031A46FB
:103D000000217868FFF72AFE38613B69002B02D05A
:103D10004FF0FF330EE0FB6803F08003002B01D16E
:103D2000002307E07B69013B7B617B69002BE4D1C9
:103D30004FF0FF3318461837BD4680BD80B586B0BA
:103D400000AF786039600023FB600C21012004F093
:103D50003BFE03467B617B69002B02D14FF0FF33B2
:103D60007AE03B681A7C7B691A717B691B79082BA6
:103D700002D0092B04D007E07B69394A9A6006E03B
:103D80007B69384A9A6002E04FF0FF3364E07B6958
:103D90003A681146184602F0A5FD38613B69002BD0
:103DA00002D04FF0FF3357E07869FFF76DFE3861BE
:103DB0003B69002B02D04FF0FF334DE007F10C03BD
:103DC0001A4604217869FFF7C9FD38613B69002B69
:103DD00002D04FF0FF333FE07B691B79082B02D004
:103DE000092B0BD015E0FB6803F00F03082B16D04E
:103DF0001D4805F0FFF94FF0FF332DE0FB6803F09D
:103E00000F03092B0DD0194805F0F4F94FF0FF33DB
:103E100022E0154805F0EEF94FF0FF331CE000BF3B
:103E200000E000BF00217869FFF7E4FE38613B69DC
:103E3000002B02D04FF0FF330EE001217869FFF72D
:103E400028FF38613B69002B02D04FF0FF3303E0BD
:103E50007B687A691A603B6918461837BD4680BD91
:103E6000DCF30000E4F30000F0F3000008F40000CD
:103E700080B487B000AFF860B9607A603B60FB68DF
:103E80007B6100BF18461C37BD4680BC704780B4BC
:103E900087B000AFF860B9607A603B60FB687B6117
:103EA0007B6818461C37BD4680BC70470000000088
:103EB00090B58BB002AFF860B9607A603B60FB6888
:103EC000FB613B68B3F90030DBB207F1140219461D
:103ED000F869FFF756FE7B69184604F017F914A33A
:103EE000D3E9002304F08CF903460C46184621461A
:103EF00011A3D3E9002304F0ADFA03460C4618469B
:103F0000214604F08FFB0346BB61B86904F020F939
:103F100003460C46CDE90034094A7968B86805F0D3
:103F200051FB034618462437BD4690BDAFF30080D1
:103F3000FCA9F1D24D62104000000000E0FFEF400C
:103F400020F4000080B586B000AFF860B9607A60F8
:103F50003B60FB687B6107F1130319467869FFF743
:103F600075FEFB7C044A7968B86805F02BFB0346B4
:103F700018461837BD4680BD28F4000080B586B0CD
:103F800000AFF860B9607A603B60FB687B61B8683D
:103F900003F037FF38613B69DBB219467869FFF7F8
:103FA00029FE7B6818461837BD4680BD90B58DB098
:103FB00000AFF860B9607A603B60FB683B62002349
:103FC000BB6200237B62FB68002B02D14FF0FF3302
:103FD00050E0BB68002B02D14FF0FF334AE0BB68D2
:103FE000FB613A6813465B009C18386C03F0EEFEE8
:103FF0000346B4FBF3F3BB61BB695B08BB617A6842
:1040000013465B009C18386C03F0E0FE0346B4FBDB
:10401000F3F37B600023FB6227E001227B6A02FA54
:1040200003F31A463B6C1340002B11D07B6ADBB2C2
:1040300007F114021946386AFFF7A3FD7969BB6AD4
:104040005B00FA6913448AB21A80BB6A0133BB620F
:104050007B6A0133022B03D87B6A01337B6201E068
:1040600000237B62FB6A0133FB62FA6ABB699A42F6
:10407000D3D33B6818463437BD4690BD80B487B073
:1040800000AFF860B9607A603B60FB687B61FB68F9
:10409000002B02D14FF0FF3308E0BB68002B02D1A8
:1040A0004FF0FF3302E0BB683B613B6818461C37AA
:1040B000BD4680BC704780B584B000AF7860396081
:1040C0007B68002B02D03B68002B02D16FF01503F8
:1040D00024E02821012004F077FC0346FB60FB6804
:1040E000002B02D16FF00B0318E07B68FA681A60AE
:1040F000FB683A681A603968012004F065FC0346E1
:104100001A46FB685A60FB685B68002B05D1F868AB
:1041100004F0F4FC6FF00B0300E0002318461037A6
:10412000BD4680BD80B582B000AF78607B68002B53
:1041300002D14FF0FF330CE07B685B68002B04D0AA
:104140007B685B68184604F0D9FC786804F0D6FCFC
:10415000002318460837BD4680BD80B485B000AF47
:10416000786039607B68002B02D03B68002B02D15D
:104170006FF0150335E07B68DA687B68DB699A428B
:1041800006D97B68DA687B68DB69D31AFB6005E0D7
:104190007B68DA687B68DB69D31AFB60FB68002BFD
:1041A0000AD07B681A687B689B681A447B689B69A5
:1041B000D21A3B681A6006E07B689A687B689B6944
:1041C000D21A3B681A603B681A687B681B689A427F
:1041D00006D97B681A683B681A606FF4FA6300E0DE
:1041E000002318461437BD4680BC704780B588B0A0
:1041F00000AFF860B9607A603B60FB68002B05D0C7
:104200007B68002B02D03B68002B02D16FF01503B6
:1042100052E00023FB6197F82830002B02D0FB68A6
:10422000183301E0FB680833BB61BB691B7A002BC4
:1042300002D06FF00F033FE097F82830002B21D019
:1042400007F114031946F868FFF787FF0346FB617F
:10425000FB696FF4FA62934208D1FB68DB685A1E6F
:10426000FB68DA61FB689A68FB689A617B69BA68E7
:10427000934228BF1346BB60BB68002B02D16FF08E
:104280000A0319E0FB681A68BB691B68D21ABB688D
:104290009A4228BF1A46BB69DA60BB69DA683B6894
:1042A0001A60FB685A68BB691B681A447B681A600D
:1042B000BB6901221A72FB6918462037BD4680BDD2
:1042C00080B485B000AF78600B46FB707B68002B34
:1042D00002D16FF0150335E0FB78002B02D07B682C
:1042E000183301E07B680833BB60BB681B7A83F03E
:1042F0000103DBB2002B02D04FF0FF3322E0BB689A
:104300001A68BB68DB681344FB607B681B68FA684B
:104310009A420DD3BB685B685A1CBB685A607B68C5
:104320001A68FB68B3FBF2F102FB01F29B1AFB6017
:10433000BB68FA681A60BB680022DA60BB680022BA
:104340001A72002318461437BD4680BC704780B5EA
:104350008CB002AFF860B9607A60FB70FB68002B2C
:1043600005D0BB68002B02D07B68002B02D16FF018
:1043700015034CE0002387F8233000237B623AE0EA
:104380007A687B6AD11A07F1140007F11802FB78EA
:1043900000930346F868FFF729FFF861FB6913F102
:1043A000100FEDD0FB6913F10B0FE9D0FB696FF42F
:1043B000FA62934202D1012387F82330FB78002B65
:1043C00008D0BA687B6A1344B9697A69184604F060
:1043D00045FE07E0B869BA687B6A13447A691946F2
:1043E00004F03CFEFB781946F868FFF769FF7B692B
:1043F0007A6A13447B627A6A7B689A42C0D397F8E0
:104400002330002B02D06FF4FA6300E0002318463B
:104410002837BD4680BD80B584B000AFF860B96074
:104420007A6000237A68B968F868FFF790FF03465E
:1044300018461037BD4680BD80B584B000AFF86027
:10444000B9607A6001237A68B968F868FFF77FFF7E
:10445000034618461037BD4680BD000080B586B0C3
:1044600000AF7860396000233B813B68002B01D0AE
:10447000144B01E04FF47A73FB6000233B613B680F
:10448000002B0FD007F1080319460F4802F062FC19
:104490000346002B01D0002310E00B4B1B6818468D
:1044A00002F040FD07F108031946786802F052FC5B
:1044B0000346002B01D0002300E0012318461837E3
:1044C000BD4680BD40420F002019042080B584B055
:1044D00000AF786039600021786802F079FE786872
:1044E00002F020FD07F10C031946786802F092FDF6
:1044F000FB683A689A42F5D8786802F04DFD00BF33
:104500001037BD4680BD000080B582B000AF786036
:104510000A4B1B68002B06D100210848FFF79EFFBD
:104520000346002B06D0054B1B6879681846FFF739
:10453000CDFF00E000BF0837BD4680BD2419042030
:1045400080B582B000AF786039607B689B6A0422D6
:1045500039681846FFF770FF034618460837BD460E
:1045600080BD80B582B000AF786039607B689B6A9F
:10457000394604221846FFF74EFF0346184608370F
:10458000BD4680BD80B584B000AF78607B689B6A13
:1045900007F10C0211461846FFF7DFFDFB689B0888
:1045A00018461037BD4680BD80B586B000AF786034
:1045B0007B681B6B07F10C021146184602F076FB74
:1045C00078617B6913F10B0F0BD17868FFF7DAFF85
:1045D00003463B613B69002B14D10120FFF794FF98
:1045E0000FE07B69002B01DA7B691CE0FB68194650
:1045F0007868FFF7B6FF78617B69002BD8DA7B69B2
:1046000011E0D5E700BF7B682C3319467868FFF7C7
:1046100097FF78617B69002B04DA7B680022DA62FD
:104620007B6900E0002318461837BD4680BD0000B6
:1046300080B584B000AF78603960254B1B68DB6AB9
:10464000B3F1FF3F02D14FF0FF333DE0204B1B6839
:10465000DB6A002B0AD11E4B1B681846FFF7A4FF2C
:10466000B860BB68002B01DABB682DE00023FB605B
:10467000174B1B68D86A7A68FB68D1183A68FB68E0
:10468000D31A1A4602F0CDFAB860BB68002B03DAE1
:104690007B682A221A7007E0BB68FA681344FB6043
:1046A000FA683B689A42E3D3BB6813F1800F0AD1E2
:1046B000074B1B68DB6A184602F075FA044B1B684F
:1046C0004FF0FF32DA62FB6818461037BD4680BDF6
:1046D0002819042080B582B000AF786039600C4B97
:1046E0001B681B7A002B09D1094B1B685B6A3A686F
:1046F0007968184603F0C0F9034604E03968786821
:10470000FFF796FF034618460837BD4680BD00BF39
:104710002819042080B582B000AF786039600E4B54
:104720001B681B7A002B09D10B4B1B685B6A3A682C
:104730007968184603F0F6F9034608E0064B1B6853
:10474000DB6A3A687968184602F04FFA0346184661
:104750000837BD4680BD00BF2819042080B584B04D
:1047600000AF78607B68BB604FF0FF33FB6017E001
:1047700004F0AEF90246BB681B78013313441B7882
:1047800003F00403002B08D0BB6807F108010A22DC
:10479000184605F059FAF86002E0BB680133BB60C7
:1047A000BB681B78002BE3D1FB6818461037BD4669
:1047B00080BD000080B483B000AF0346FB71FB797D
:1047C000012B05D0022B05D0002B05D1054B04E0B1
:1047D000054B02E0054B00E0054B18460C37BD4683
:1047E00080BC70472CF4000034F400003CF400005E
:1047F00048F4000080B584B000AFF8600B467A60E2
:10480000FB72FB7A1846FFF7D5FF02467B68044926
:10481000F86804F01DFF00BF1037BD4680BD00BF23
:104820004CF4000080B58AB000AFF860B960134660
:10483000FB710023FB842DE0B7F926309B00BA689A
:1048400013441B681979B7F9262007F1100318469D
:10485000FFF7D0FF07F110031946F86804F0AEFF28
:104860000346002B10D1B7F926309B00BA681344D9
:104870001B681B7EFA799A4206D1B7F926309B0055
:10488000BA6813441B680EE0B7F926309BB20133B7
:104890009BB2FB84B7F926309B00BA6813441B68AF
:1048A000002BC9D1002318462837BD4680BD000023
:1048B00080B58CB000AF786007F10C0379681846BA
:1048C00005F05AF80A4B1B681B6907F10C0207F147
:1048D0002801184601F098FAF862FB6A002B01DA09
:1048E000002300E0BB6A18463037BD4680BD00BFDC
:1048F0002819042090B5C7B000AF3B1D18603B4697
:1049000019600023A7F816310023A7F8143166E0D8
:10491000B7F916319B003A46126813441B685C686D
:104920003B1D1B6818683B1D1B689A683B1D1B6874
:10493000DB6807F10C01A047C7F810013B1D1B689D
:104940005A68B7F914311344C7F80C31D7F810314D
:104950001A0ED7F810311B1203F47F431A43D7F80D
:1049600010311B0203F47F031343D7F81021120602
:104970001A43D7F80C311A60B7F8143104339BB2DC
:10498000A7F81431D7F81031002B21DB3B1D1B6831
:104990005A68B7F91431134407F10C02114618464E
:1049A00004F0EAFFD7F8103103F00303002B06D020
:1049B000D7F810319B1001339B00C7F81031D7F89E
:1049C00010319AB2B7F8143113449BB2A7F81431DE
:1049D000B7F916319BB201339BB2A7F81631B7F97C
:1049E00016319B003A46126813441B68002B8FD186
:1049F000B7F91431184607F58E77BD4690BD90B5CE
:104A000085B000AF786039600023FB810023BB8153
:104A100041E07B685A68B7F90C3013441B0E9AB218
:104A20007B685968B7F90C300B441B0A9BB223F022
:104A3000FF039BB213439BB27B81BB8904339BB2C0
:104A4000BB81B7F90E309B003A6813441B689C6821
:104A50007B6818687B685A68B7F90C30D118B7F9C9
:104A60000A207B68DB68A047BA897B8913449BB224
:104A7000BB81BB8903F00303002B06D0B7F90C30D0
:104A80009B101BB201339B00BB81B7F90E309BB268
:104A900001339BB2FB81B7F90E309B003A68134497
:104AA0001B68002BB5D17B689B6818461437BD4640
:104AB00090BD90B587B000AFF860B9607A60FB70C8
:104AC000BB681B687B610BE07B691B6819467868D3
:104AD00004F074FE0346002B06D07B690C337B6127
:104AE0007B69002BF0D100E000BF7B69002B02D175
:104AF0006FF001031BE0FB78002B0CD07B699C68F6
:104B0000FB681868FB685968FB689A68FB68DB6893
:104B1000A04703460BE07B695C68FB681868FB688C
:104B20005968FB689A68FB68DB68A047034618462B
:104B30001C37BD4690BD80B58AB000AFF860B96043
:104B40007A603B60F868FFF7B3FE38623B6A002B7F
:104B500002D14FF0FF3329E07B687B613B68BB618A
:104B60003B6A5B693B610023FB6197F83030002BA7
:104B700004D03B6A9B69DB687B6203E03B6A9B690C
:104B80009B687B62BB681B78002B07D107F1100381
:104B9000796A1846FFF7AEFE034607E007F11000FA
:104BA0000023BA68796AFFF784FF0346184628375E
:104BB000BD4680BD80B58AB000AFF860B9607A604C
:104BC0003B60F868FFF774FE38623B6A002B02D145
:104BD0006FF0120329E07B687B613B68BB613B6A35
:104BE0005B693B610023FB6197F83030002B04D0F8
:104BF0003B6A9B69DB687B6203E03B6A9B699B685D
:104C00007B62BB681B78002B07D107F11003796A20
:104C10001846FFF7F4FE034607E007F110000123F2
:104C2000BA68796AFFF745FF034618462837BD463C
:104C300080BD80B58CB000AFF860B9603B601346B2
:104C4000FB71F868FFF734FEF862FB6A002B02D1B3
:104C50004FF0FF3340E0FB7987F82630B868FFF764
:104C60007DFD03461BB2BB84B7F92430B3F1FF3F8F
:104C700002D14FF0FF332FE0FB6A9B695B68FA7942
:104C80001946B868FFF7CEFDB862BB6A002B02D1A7
:104C90006FF0010320E0BB6BBB61FB6BFB61FB6A48
:104CA0005B697B6107F124033B623B681B78002B47
:104CB00009D1BB6A5A6907F1140311461846FFF778
:104CC00019FE034608E0BB6A596907F11400002386
:104CD0003A68FFF7EEFE034618463037BD4680BD02
:104CE00080B58CB000AFF860B9603B601346FB71D3
:104CF000F868FFF7DDFDF862FB6A002B02D16FF068
:104D0000010340E0FB7987F82630B868FFF726FDFD
:104D100003461BB2BB84B7F92430B3F1FF3F02D185
:104D20004FF0FF332FE0FB6A9B695B68FA79194605
:104D3000B868FFF777FDB862BB6A002B02D16FF04D
:104D4000010320E0BB6BBB61FB6BFB61FB6A5B6932
:104D50007B6107F124033B623B681B78002B09D180
:104D6000BB6A5A6907F1140311461846FFF747FE5C
:104D7000034608E0BB6A596907F1140001233A6849
:104D8000FFF797FE034618463037BD4680BD80B515
:104D900086B000AFF860B9607A60F868FFF788FD08
:104DA00078617B69002B02D16FF0120316E07B69FA
:104DB0009B691B88C3F120034FF0FF3222FA03F3F3
:104DC0003B613B69DA437B681340002B02D06FF0F4
:104DD000010303E07B697A681A61002318461837DB
:104DE000BD4680BD80B584B000AF78607868FFF7BD
:104DF0005FFDF860FB68002B02D14FF0FF3303E04A
:104E0000FB6800221A61002318461037BD4680BD9A
:104E100080B584B000AF786039607868FFF748FDEE
:104E2000F860FB68002B02D16FF0120304E0FB680E
:104E30001A693B681A60002318461037BD4680BDCA
:104E400080B584B000AF786039607868FFF730FDD6
:104E5000F860FB689B695B69002B0AD0FB689B6963
:104E60005B69FA685069FA681269396898470346BD
:104E700001E06FF0010318461037BD4680BD90B5C4
:104E800089B002AFF860B9607A603B60F868FFF7FC
:104E90000FFD78617B699B699B69002B0DD07B6955
:104EA0009B699C697B6958697B691B6900933B68B6
:104EB0007A68B968A047034601E06FF0010318461D
:104EC0001C37BD4690BD80B584B000AF78603960B6
:104ED0007868FFF7EDFCF860FB689B69DB69002BE5
:104EE0000AD0FB689B69DB69FA685069FA68126945
:104EF00039689847034601E06FF001031846103700
:104F0000BD4680BD90B589B002AFF860B9607A60E7
:104F10003B60F868FFF7CCFC78617B699B691B6A92
:104F2000002B0DD07B699B691C6A7B6958697B6982
:104F30001B6900933B687A68B968A047034601E0A3
:104F40006FF0010318461C37BD4690BD80B483B096
:104F500000AF78607B68002B02D14FF0FF3307E091
:104F6000064B1B685A697B681A60044B1B689B6977
:104F700018460C37BD4680BC704700BF2819042076
:104F800080B584B000AF78607B68DB6A002B10D0FE
:104F90007B68DB6AB3F1FF3F0BD07B68DB6A1946A5
:104FA0007868FFF7DEFAF860FB68002B01DAFB682F
:104FB00008E07B680022DA627B681B68184602F012
:104FC00046F9034618461037BD4680BDF0B59FB080
:104FD00006AFF860B9607A603B60BB6FB3F1FF3F2A
:104FE00002D100233B6501E0BB6F3B653B68002BB2
:104FF00002D107F114033B600023FB653A6DFB6DA2
:10500000D31A23EAE3731946BB6800937B688E4A80
:10501000386804F0D7FA0246FB6D1344FB65FB6861
:105020005B68002B00F0B6800023BB65A9E0FB683D
:105030005A68BB6D9B0013441B68FB64FB6C1979B9
:1050400007F11403BA6D1846FFF7D4FBFB6D3A68FD
:10505000D0183A6DFB6DD31A23EAE3731C46FB6C40
:105060001B68FA6C127E002A01D0784A00E0784A68
:1050700007F11401019200930B46764A214604F091
:10508000A1FA0246FB6D1344FB65FB6D3A68D0182C
:105090003A6DFB6DD31A23EAE3739C46FB6C996867
:1050A000FB6C1B7C002B01D06B4B00E06B4BFA6C54
:1050B000127B1446FA6C527B1546FA6C927B1646AC
:1050C000FA6CD27B049203960295019400930B46EE
:1050D000634A614604F076FA0246FB6D1344FB65B1
:1050E000FB6C5B69002B39D000237B652EE0FB6CE9
:1050F0005A697B6D9B0013441B68BB64FB6D3A6867
:10510000D0183A6DFB6DD31A23EAE3731D46BB6CCE
:105110001C68FB6C1B7E002B01D0524B00E0524BF5
:10512000FA6C1268B96C09680391029207F11402D3
:105130000192009323464D4A294604F043FA024661
:10514000FB6D1344FB657B6D01337B65FB6C5A691A
:105150007B6D9B0013441B68002BC8D1FB6D3A6824
:10516000D0183A6DFB6DD31A23EAE373404A19460F
:1051700004F028FA0246FB6D1344FB65BB6D013356
:10518000BB65FB685A68BB6D9B0013441B68002B12
:105190007FF44DAFFB689B68002B24D00023BB65D8
:1051A00019E0FB6D3A68D0183A6DFB6DD31A23EA0B
:1051B000E3731946FB689A68BB6D9B0013441B6838
:1051C0001B682C4A04F0FEF90246FB6D1344FB6594
:1051D000BB6D0133BB65FB689A68BB6D9B001344D4
:1051E0001B68002BDDD1FB68DB68002B24D000237B
:1051F000BB6519E0FB6D3A68D0183A6DFB6DD31AA8
:1052000023EAE3731946FB68DA68BB6D9B0013441D
:105210001B681B68184A04F0D5F90246FB6D13445D
:10522000FB65BB6D0133BB65FB68DA68BB6D9B003A
:1052300013441B68002BDDD1FB681B69002B3FD09A
:105240000023BB6534E000BF54F4000078F4000094
:1052500080F4000088F40000B0F40000B4F4000012
:10526000B8F40000F4F40000F8F40000FCF40000CE
:105270002CF5000038F5000050F50000FB6D3A6891
:10528000D0183A6DFB6DD31A23EAE3731946FB6815
:105290001A69BB6D9B0013441B681B68134A04F01A
:1052A00091F90246FB6D1344FB65BB6D0133BB6591
:1052B000FB681A69BB6D9B0013441B68002BDDD192
:1052C000FB6D3A68D0183A6DFB6DD31A23EAE3738D
:1052D000074A194604F076F90246FB6D1344FB6554
:1052E000FB6D18466437BD46F0BD00BF70F5000089
:1052F00090F50000B0B58CB002AFF860B9607A608C
:105300003B601C21012003F05FFB03467B627B6A4C
:10531000002B02D16FF00B0378E07B6A3A685A6188
:105320007B6A7A68DA607B6ABA689A617B6A986994
:105330007B6AD968FB681B6A1A464FF0FF330093FB
:105340000023FFF743FE03463B62FB689A693B6A12
:105350001344FB61FB685B69FA691146184603F068
:105360005DFFB861BB69002B05D1786A03F0C6FB0D
:105370006FF00B034AE0FB681B691B68FA6812694F
:10538000796A1046984778617B69002B07DA786A5A
:1053900003F0B4FBB86903F0B1FB7B6936E0FB684E
:1053A000BA695A617B6A98697B6AD968FB681B6A2B
:1053B0001D46FB685A69FB68DB69D418FA69FB680B
:1053C000DB69D31A009323462A46FFF7FFFD786A6C
:1053D000FB681B6A1A460F4904F03AF9FB68DA6960
:1053E0003B6A1A44FB68DA61FB689A693B6A1A44B3
:1053F000FB689A61FB685B690749184604F04AF943
:10540000FB681B6A5A1CFB681A620023184628377F
:10541000BD46B0BD9CF500005C05042080B582B09F
:1054200000AF786039607B683A681146184604F02E
:10543000C5F9034618460837BD4680BD80B586B01D
:1054400000AF786039603B68002B02D16FF0150324
:1054500005E14821012003F0B7FA03467B617B692F
:10546000002B02D14FF0FF33F9E03421012003F08B
:10547000ABFA03463B613B69002B00F0EA803B69D5
:105480007A695A607B69784A5A617B69774A9A617E
:105490007B69774ADA617B69764A1A627B69764A68
:1054A000DA627B69754A1A637B69754A5A637B695C
:1054B000744A9A637B69744A5A627B69734A9A6236
:1054C0007B69734ADA637B69724A1A607B69724A44
:1054D0005A603B6940F23C429A613B699B691846BD
:1054E00003F004FB03461A463B695A613B695B695A
:1054F000002B00F0A3803B695B696849184604F003
:105500003BFA3B695B696649184604F0C3F83B699E
:105510004FF48662DA613B681A783B691A723B681D
:105520001B78002B0DD13B6903F124023B685B68BB
:105530001946104602F04AFBF860FB68002B30DA8F
:1055400083E03B681B78012B7AD13B6903F1300281
:105550003B685B681946104601F0E1FAF860FB68A9
:10556000002B6FDB3B691B6B47F2DF61184601F0D4
:1055700074FBF860FB68002B40DB3B691B6B002170
:10558000184601F07FFBF860FB68002B38DB3B69B5
:10559000283310211846FEF78EFDF860FB68002BBB
:1055A00030DB7B693B4A1A607B693B4A5A607B6906
:1055B0003C4A5A643B6910333B4A0321184600F0C9
:1055C00089FAF860FB68002B1EDB786901F021FE88
:1055D00002463B691A603B691B68002B07D07B6859
:1055E0003A691A60314A3B691360002337E000BF13
:1055F0003B691B69184600F0B3FA06E000BF04E0FF
:1056000000BF02E000BF00E000BF3B691B7A002B37
:1056100005D13B695B6A184602F0B2FB15E03B69B5
:105620001B6B184601F0BFFA3B699B6A002B0BD03D
:105630003B699B6A1846FEF775FD06E000BF04E073
:1056400000BF02E000BF00E000BF386903F056FA77
:1056500000E000BF786903F051FA4FF0FF331846BD
:105660001837BD4680BD00BF374B0000B54B00006A
:10567000334C0000E14C0000414E00007F4E000022
:10568000C74E0000054F00008F4D0000E54D0000A3
:10569000114E0000D54600001547000028010420E7
:1056A0005C0504204D4F00001D5400002819042003
:1056B00080B483B000AF0346FB7197F90730002B2D
:1056C0000BDBFB7903F01F02064997F907305B09F2
:1056D000012000FA02F241F8232000BF0C37BD463A
:1056E00080BC704700E100E080B584B000AF786016
:1056F00039607B68002B06D03B68002B03D01F4B22
:105700001B68002B01D0012333E00821012003F0A6
:105710005BF903461A467B681A607B681B68002B9E
:1057200001D1012325E05C21012003F04DF903465E
:10573000FB60FB68002B09D17B681B68184603F0EF
:10574000DDF97B6800221A60012312E07B681B6888
:10575000FA685A607B681B683A6812681A60FB68CE
:10576000283330211846FDF763FF044B01221A60ED
:10577000002318461037BD4680BD00BF2C190420F9
:1057800080B584B000AF78607B68002B07D07B6861
:105790005B68002B03D0284B1B68002B01D1012331
:1057A00045E07B685B68BB600023FB6013E0BB687F
:1057B0009A6D0121FB6801FA03F31340002B07D017
:1057C000FB68DBB20133DBB25BB21846FFF770FF58
:1057D000FB680133FB60FB68032BE8D9BB689B6D5A
:1057E00003F01003002B03D00421786800F026F8A2
:1057F000BB689B6D03F02003002B03D00521786864
:1058000000F01CF8BB689B6D03F04003002B03D035
:105810000621786800F012F8BB689B6D03F08003E6
:10582000002B03D00721786800F008F80023184601
:105830001037BD4680BD00BF2C19042080B586B04E
:1058400000AF786039607B68002B0AD07B685B68AA
:10585000002B06D0354B1B68002B02D03B68072B72
:1058600001D901235DE07B685B687B617A693B68F5
:10587000134420331B7883F00103DBB2002B01D0EB
:1058800001234EE03B68032B0CD8294A3B6852F8B1
:105890002330D8B27B693A6813F822301946FDF7F5
:1058A000DFFE34E03B68042B03D10E20FFF700FF3E
:1058B0002DE03B68052B18D17B693A6853F82230FC
:1058C000002B12D07B693A6853F822301B68DB68E2
:1058D0003B613B6918687B693A6853F822305B6822
:1058E00001221946FBF754F811E03B68062B02D061
:1058F0003B68072B0BD13B68062B01D1092300E045
:105900000A23FB7397F90F301846FFF7D1FE7B6926
:105910009A6D01213B6801FA03F31A437B699A658A
:10592000002318461837BD4680BD00BF2C1904203F
:10593000A8F5000080B483B000AF786039607A6861
:105940003B68D31A18460C37BD4680BC704780B5FB
:1059500086B000AFF860B9607A600C21012003F0D6
:1059600033F803467B617B69002B01D1002309E0FA
:105970007B69FA681A607B69BA685A607B697A68E1
:105980009A607B6918461837BD4680BD80B485B0E3
:1059900000AFF860B9607A60FB68002B07D0BB6885
:1059A000002B01D0BB6800E07B68FA689360BB689D
:1059B000002B05D0BB68FA685A60BB687A689A60A9
:1059C0007B68002B07D0BB68002B01D0BB6800E0D0
:1059D000FB687A68536000BF1437BD4680BC7047CF
:1059E00080B485B000AFF860B9607A60FB681B686E
:1059F000BA689A420CD1FB687A685A60BB68002B7F
:105A000002D07B68002B0FD1FB687A681A600BE02C
:105A1000FB68BA681A607B68002B02D0BB68002B59
:105A200002D1FB68BA685A6000BF1437BD4680BC1B
:105A30007047000080B483B000AF78600B46FB7005
:105A4000FB78012B11D0032B1FD17B68194A1A60F8
:105A50007B68194A5A607B68184A9A607B68184AC2
:105A6000DA607B68174A1A611FE07B68164A1A6081
:105A70007B68114A5A607B68104A9A607B68104ABA
:105A8000DA607B680F4A1A610FE07B680E4A1A6081
:105A90007B680E4A5A607B68094A9A607B68074AAD
:105AA000DA607B680A4A1A6100BF00BF0C37BD4646
:105AB00080BC70478B5C00007B5E0000715D000065
:105AC000BD5D0000115D0000215C0000FD5E000076
:105AD000415D000080B586B000AFF8600B467A608B
:105AE000FB72FB68002B02D14FF0FF3331E018212D
:105AF000012002F069FF03467B617B69002B02D124
:105B00004FF0FF3325E01C21012002F05DFF03462A
:105B10003B613B69002B05D1786902F0EFFF4FF044
